S00C00007175697A2E737265634F
S11300000C94FE000C9424010C94DD010C94240146
S11300100C9424010C9424010C9424010C942401C8
S11300200C9424010C9424010C9424010C942401B8
S11300300C9424010C9424010C9424010C942401A8
S11300400C9424010C9424010C9424010C94240198
S11300500C9424010C9424010C9424010C94240188
S11300600C9424010C9424010C9424010C94240178
S11300700C9424010C9424010C9424010C94240168
S11300800C9424010C9424010C9424010C94240158
S11300900C9424010C9424010C9424010C94240148
S11300A00C9424010C9424010C9424010C94240138
S11300B00C9424010C9424010C9424010C94240128
S11300C00C9424010C9424010C9424010C94240118
S11300D00C9424010C9424010C9424010C94240108
S11300E00C9424010C9424010C9424010C942401F8
S11300F00C9424010C9424010C9424010C942401E8
S11301000C9424010C9424010C9424010C942401D7
S11301100C9424010C9424010C9424010C942401C7
S11301200C9424010C9424010C9424010C942401B7
S11301300C9424010C9424010C9424010C942401A7
S11301400C9424010C9424010C9424010C94240197
S11301500C9424010C9424010C9424010C94240187
S11301600C9424010C9424010C9424010C94240177
S11301700C9424010C9424010C9424010C94240167
S11301800C9424010C9424010C9424010C94240157
S11301900C9424010C9424010C9424010C94240147
S11301A00C9424010C9424010C9424010C94240137
S11301B00C9424010C9424010C9424010C94240127
S11301C00C9424010C9424010C9424010C94240117
S11301D00C9424010C9424010C9424010C94240107
S11301E00C9424010C9424010C9424010C942401F7
S11301F00C9424010C9424010C94240111241FBE9A
S1130200CFEFCDBFDFE3DEBF00E00CBF18BE19BEE9
S11302101ABE1BBE10E2A0E0B0E2EAEAF4E000E09D
S11302200BBF02C007900D92AC31B107D9F71BBECA
S113023020E2ACE1B0E201C01D92AE31B207E1F7B9
S11302400E945D010C9453020C9400001F93CF9301
S1130250DF93C0EAD6E018E01E8380680E940B0298
S11302600E9419021D83DF91CF911F9108950F936E
S11302701F93CF93DF93062FC0EAD6E018E01E83C6
S11302800E940B02802F0E940B021D83DF91CF91ED
S11302901F910F910895E0E4F6E080E8828393E0F3
S11302A09187828782E0878B68EC83E20E94370122
S11302B067E980E20E94370108950E94FF010E94CD
S11302C02A020E944B0187E08093A2007894D0E038
S11302D0C0E000E010E080911C2090911D20892B4B
S11302E0D1F388E20E942601882381F0C1110EC057
S11302F088E20E94260180E090E20E94440289E2A2
S11303000E942601882309F444C007C089E20E94A0
S11303102601882379F0D1110DC089E20E942601BB
S113032085E090E20E9444028AE20E94260188232A
S1130330D1F107C08AE20E942601882399F00111B5
S113034011C08AE20E9426018BE090E20E944402DE
S11303508BE20E94260181110CC0D0E0C0E001E0D4
S113036010E012C08BE20E942601882369F011116B
S11303700BC08BE20E94260184E190E20E944402B9
S1130380D0E0C0E000E011E010921C2010921D208B
S1130390A2CF8AE20E9426018111D3CFD0E0C1E02E
S11303A000E010E0DFCF8BE20E9426018111E1CF53
S11303B0D1E0C0E000E010E0E7CF1F920F920FB64B
S11303C00F92112408B60F9218BE2F933F938F9368
S11303D09F938FB791E090934C0621E030E02093F7
S11303E01C2030931D208FBF9F918F913F912F919F
S11303F00F9008BE0F900FBE0F901F901895E0EA63
S1130400F6E08CE285838CEA818380E482838CE548
S11304108093C00B089590E19093A7068093C30B3B
S1130420E0ECFBE082818823ECF780E18093A7066F
S1130430089580E18093A70687E38093C30BE0ECE3
S1130440FBE082818823ECF780E18093A70680910A
S1130450C30B0895E0E6F6E088E08583818384E0B9
S11304608283E0EAF9E086E9868380E9878383E092
S1130470858388E184830895E0EAF9E0918195FF1A
S1130480FDCF8093A0090895CF93DF93EC01888179
S1130490882331F021960E943C0289918111FBCF7F
S10D04A0DF91CF910895F894FFCF87
S11304AA6C656674007269676874006261636B776D
S10F04BA61726400666F72776172640006
S9030000FC
