:100000000C94FE000C940E010C940E010C940E0145
:100010000C940E010C940E010C940E010C940E0124
:100020000C940E010C940E010C940E010C940E0114
:100030000C940E010C940E010C940E010C940E0104
:100040000C940E010C940E010C940E010C940E01F4
:100050000C940E010C940E010C940E010C940E01E4
:100060000C940E010C940E010C940E010C940E01D4
:100070000C940E010C940E010C940E010C940E01C4
:100080000C940E010C940E010C940E010C940E01B4
:100090000C940E010C940E010C940E010C940E01A4
:1000A0000C940E010C940E010C940E010C940E0194
:1000B0000C940E010C940E010C940E010C940E0184
:1000C0000C940E010C940E010C940E010C940E0174
:1000D0000C940E010C940E010C940E010C940E0164
:1000E0000C940E010C940E010C940E010C940E0154
:1000F0000C940E010C940E010C940E010C940E0144
:100100000C940E010C940E010C940E010C940E0133
:100110000C940E010C940E010C940E010C940E0123
:100120000C940E010C940E010C940E010C940E0113
:100130000C940E010C940E010C940E010C940E0103
:100140000C940E010C940E010C940E010C940E01F3
:100150000C940E010C940E010C940E010C940E01E3
:100160000C940E010C940E010C940E010C940E01D3
:100170000C940E010C940E010C940E010C940E01C3
:100180000C940E010C940E010C940E010C940E01B3
:100190000C940E010C940E010C940E010C940E01A3
:1001A0000C940E010C940E010C940E010C940E0193
:1001B0000C940E010C940E010C940E010C940E0183
:1001C0000C940E010C940E010C940E010C940E0173
:1001D0000C940E010C940E010C940E010C940E0163
:1001E0000C940E010C940E010C940E010C940E0153
:1001F0000C940E010C940E010C940E0111241FBEE0
:10020000CFEFCDBFDFE3DEBF00E00CBF18BE19BEED
:100210001ABE1BBE0E9410010C949D010C9400009C
:10022000CF93DF931F92CDB7DEB70E943F018FE0DF
:100230000E942101898380E090E00F90DF91CF91AF
:100240000895CF93DF931F921F92CDB7DEB78A83B5
:1002500080EA96E028E0FC0126838A8180680E947B
:100260005B010E947C01898380EA96E028E0FC0122
:10027000258389810F900F90DF91CF910895CF93BF
:10028000DF93CDB7DEB780EA96E02CE2FC01258350
:1002900080EA96E02CEAFC01218380EA96E020E4E3
:1002A000FC01228380EC9BE02CE5FC012083000014
:1002B000DF91CF910895CF93DF931F92CDB7DEB733
:1002C000898380EA96E020E1FC01278380EC9BE0B3
:1002D0002981FC012383000080EC9BE0FC018281EA
:1002E0008823D4F780EA96E020E1FC012783000010
:1002F0000F90DF91CF910895CF93DF93CDB7DEB705
:1003000080EA96E020E1FC01278380EC9BE027E374
:10031000FC012383000080EC9BE0FC0182818823A8
:10032000D4F780EA96E020E1FC01278380EC9BE093
:0E033000FC018381DF91CF910895F894FFCFF7
:00000001FF
