:100000000C94FE000C9424010C949F020C94240187
:100010000C9424010C9424010C9424010C942401CC
:100020000C9424010C9424010C9424010C942401BC
:100030000C9424010C9424010C9416030C942401B8
:100040000C9424010C9424010C9424010C9424019C
:100050000C9424010C9424010C9424010C9424018C
:100060000C9424010C9424010C9424010C9424017C
:100070000C9424010C9424010C9424010C9424016C
:100080000C9424010C9424010C9424010C9424015C
:100090000C9424010C9424010C9424010C9424014C
:1000A0000C9424010C9424010C9424010C9424013C
:1000B0000C9424010C9424010C9424010C9424012C
:1000C0000C9424010C9424010C9424010C9424011C
:1000D0000C9424010C9424010C9424010C9424010C
:1000E0000C9424010C9424010C9424010C942401FC
:1000F0000C9424010C9424010C9424010C942401EC
:100100000C9424010C9424010C9424010C942401DB
:100110000C9424010C9424010C9424010C942401CB
:100120000C9424010C9424010C9424010C942401BB
:100130000C9424010C9424010C9424010C942401AB
:100140000C9424010C9424010C9424010C9424019B
:100150000C9424010C9424010C9424010C9424018B
:100160000C9424010C9424010C9424010C9424017B
:100170000C9424010C9424010C9424010C9424016B
:100180000C9424010C9424010C9424010C9424015B
:100190000C9424010C9424010C9424010C9424014B
:1001A0000C9424010C9424010C9424010C9424013B
:1001B0000C9424010C9424010C9424010C9424012B
:1001C0000C9424010C9424010C9424010C9424011B
:1001D0000C9424010C9424010C9424010C9424010B
:1001E0000C9424010C9424010C9424010C942401FB
:1001F0000C9424010C9424010C94240111241FBE9E
:10020000CFEFCDBFDFE3DEBF00E00CBF18BE19BEED
:100210001ABE1BBE10E2A0E0B0E2EEE0F8E000E0A3
:100220000BBF02C007900D92A030B107D9F71BBEDB
:1002300020E2A0E0B0E201C01D92AA30B207E1F7CF
:100240000E9486010C9405040C940000CF93DF9368
:100250001F921F92CDB7DEB78A8380EA96E028E02E
:10026000FC0126838A8180680E947D030E949E0390
:10027000898380EA96E028E0FC01258389810F903C
:100280000F90DF91CF910895CF93DF931F921F922C
:10029000CDB7DEB789836A8380EA96E028E0FC0167
:1002A000268389810E947D038A810E947D0380EAE2
:1002B00096E028E0FC01258300000F900F90DF916D
:1002C000CF910895CF93DF93CDB7DEB780E496E06A
:1002D00020E8FC01228380E496E023E0FC012187F2
:1002E00080E496E020E8FC01228780E496E022E0AA
:1002F000FC01278B68EC83E20E94440167E980E2FD
:100300000E9444010000DF91CF9108950F931F9345
:10031000CF93DF93CDB7DEB72C97CDBFDEBF0E9462
:1003200061030E94BF030E94620180EA96E02FEF02
:10033000FC01208384EA96E02FEFFC01208386E60F
:1003400096E020E1FC01208381E696E020E1FC01BB
:10035000208380EA90E027E0FC012283789480915A
:10036000002090910120892B09F473C089E20E943A
:100370002601882F90E0182F002788E20E9426018E
:10038000882F90E0800F911F99231CF491958195FF
:10039000910980930420909305208BE20E9426010E
:1003A000882F90E0182F00278AE20E942601882FCC
:1003B00090E0800F911F99231CF4919581959109EC
:1003C00080930820909309208DE20E942601882FB7
:1003D00090E0182F00278CE20E942601882F90E0E1
:1003E000800F911F99231CF4919581959109809319
:1003F00006209093072088E20E9426018983898144
:100400000E94EA0389E20E9426018A838A810E946F
:10041000EA038AE20E9426018B838B810E94EA0311
:100420008BE20E9426018C838C810E94EA038CE27D
:100430000E9426018D838D810E94EA038DE20E9435
:1004400026018E838E810E94EA0310920020109272
:100450000120209104203091052080910820909166
:10046000092082179307DCF42091042030910520A5
:1004700080910620909107208217930784F4809141
:10048000022090910320019751F08AE992E00E94A6
:10049000EB0281E090E08093022090930320209172
:1004A0000820309109208091042090910520821726
:1004B0009307DCF4209108203091092080910620D8
:1004C000909107208217930784F4809102209091E5
:1004D0000320029751F084EF91E00E94EB0282E04A
:1004E00090E0809302209093032020910620309189
:1004F00007208091082090910920821793070CF023
:100500002ECF2091062030910720809104209091D9
:100510000520821793070CF022CF80910220909142
:100520000320039709F41BCF80E991E00E94EB02BE
:1005300083E090E0809302209093032010CF1F92DD
:100540000F9200903F000F921124009038000F92FC
:100550001092380000903A000F9210923A000090EA
:100560003B000F9210923B002F938F939F93EF933A
:10057000FF93CF93DF931F92CDB7DEB78FE390E069
:10058000FC018081898380E496E021E0FC012487DE
:1005900081E090E080930020909301208FE390E031
:1005A0002981FC01208300000F90DF91CF91FF9102
:1005B000EF919F918F912F910F9000923B000F90A0
:1005C00000923A000F90009238000F9000923F0086
:1005D0000F901F901895CF93DF931F921F92CDB766
:1005E000DEB789839A8380E098E0FC0110A211A213
:1005F00080E098E021E0FC01268386E298E02981F2
:10060000FC01208387E298E029813A81232F330F70
:10061000330BFC01208380E098E021E0FC01208383
:1006200000000F900F90DF91CF9108951F920F92CD
:1006300000903F000F921124009038000F9210920A
:10064000380000903A000F9210923A0000903B0060
:100650000F9210923B002F938F939F93EF93FF93F2
:10066000CF93DF931F92CDB7DEB78FE390E0FC010D
:100670008081898380E098E021E0FC01248787EA7B
:1006800096E021E0FC0120838FE390E02981FC01CA
:10069000208300000F90DF91CF91FF91EF919F9108
:1006A0008F912F910F9000923B000F9000923A0093
:1006B0000F90009238000F9000923F000F901F9013
:1006C0001895CF93DF93CDB7DEB780EA96E02CE2A2
:1006D000FC01258380EA96E02CEAFC01218380EA74
:1006E00096E020E4FC01228380EC9BE02CE5FC01F9
:1006F00020830000DF91CF910895CF93DF931F9265
:10070000CDB7DEB7898380EA96E020E1FC0127833C
:1007100080EC9BE02981FC012383000080EC9BE0BE
:10072000FC0182818823D4F780EA96E020E1FC0175
:10073000278300000F90DF91CF910895CF93DF932F
:10074000CDB7DEB780EA96E020E1FC01278380EC9C
:100750009BE027E3FC012383000080EC9BE0FC018D
:1007600082818823D4F780EA96E020E1FC01278388
:1007700080EC9BE0FC018381DF91CF910895CF93C2
:10078000DF93CDB7DEB780E696E028E0FC01258355
:1007900080E696E028E0FC01218380E696E024E0F4
:1007A000FC01228380EA99E026E9FC01268380EAA5
:1007B00099E020E9FC01278380EA99E023E0FC012D
:1007C000258380EA99E028E1FC0124830000DF9181
:1007D000CF910895CF93DF931F92CDB7DEB7898372
:1007E000000080EA99E0FC018181882F90E080720E
:1007F0009927892BB1F380EA99E02981FC012083B4
:0E08000000000F90DF91CF910895F894FFCF84
:00000001FF
