S00F00004C6162385F32622E73726563DB
S11300000C94FE000C9424010C9424010C942401FF
S11300100C9424010C9424010C9424010C942401C8
S11300200C9424010C9424010C9424010C942401B8
S11300300C9424010C9424010C9424010C942401A8
S11300400C9424010C9424010C9424010C94240198
S11300500C9424010C9424010C9424010C94240188
S11300600C9424010C9424010C9424010C94240178
S11300700C9424010C9424010C9424010C94240168
S11300800C9424010C9424010C9424010C94240158
S11300900C9424010C9424010C9424010C94240148
S11300A00C9424010C9424010C9424010C94240138
S11300B00C9424010C9424010C9424010C94240128
S11300C00C9424010C9424010C9424010C94240118
S11300D00C9424010C9424010C9424010C94240108
S11300E00C9424010C9424010C9424010C942401F8
S11300F00C9424010C9424010C9424010C942401E8
S11301000C9424010C9424010C9424010C942401D7
S11301100C9424010C9424010C9424010C942401C7
S11301200C9424010C9424010C9424010C942401B7
S11301300C9424010C9424010C9424010C942401A7
S11301400C9424010C9424010C9424010C94240197
S11301500C9424010C9424010C9424010C94240187
S11301600C9424010C9424010C9424010C94240177
S11301700C9424010C9424010C9424010C94240167
S11301800C9424010C9424010C9424010C94240157
S11301900C9424010C9424010C9424010C94240147
S11301A00C9424010C9424010C9424010C94240137
S11301B00C9424010C9424010C9424010C94240127
S11301C00C9424010C9424010C9424010C94240117
S11301D00C9424010C9424010C9424010C94240107
S11301E00C9424010C9424010C9424010C942401F7
S11301F00C9424010C9424010C94240111241FBE9A
S1130200CFEFCDBFDFE3DEBF00E00CBF18BE19BEE9
S11302101ABE1BBE12E2A0E0B0E2E2EFF2E000E0A0
S11302200BBF02C007900D92A030B107D9F71BBED7
S113023022E2A0E0B2E201C01D92A130B207E1F7D0
S11302400E9458010C9477010C9400008F9382E073
S1130250809350008091510081FFFCCF88ED809302
S1130260340081E08093400088ED8093340080E086
S1130270809341008F91089589E08093000380E486
S11302808093010388E18093020381E08093030358
S113029088E080930106089587E4809326081092ED
S11302A0270880EC8093810181E080930008089501
S11302B00E9426010E943C010E944C01E0E0F8E00B
S11302C0CAE1D3E021E0848580FFFDCFA091002224
S11302D081E08A0F80930022B0E0AA0FBB1FA050D8
S11302E0B04E8D919C91888399832487ECCFF894A8
S10502F0FFCF3A
S11302F20008320864089608C808FA082C095E093E
S11303028F09C009F109220A520A820AB10AE00AD3
S11303120F0B3D0B6B0B980BC50BF10B1C0C470C15
S1130322710C9A0CC30CEB0C120D390D5F0D830D7D
S1130332A70DCA0DED0D0E0E2E0E4E0E6C0E8A0E6C
S1130342A60EC10EDC0EF50E0D0F240F3A0F4F0F41
S1130352630F760F870F980FA70FB50FC20FCD0F3C
S1130362D80FE10FE90FF00FF50FF90FFD0FFE0F94
S1130372FF0FFE0FFD0FF90FF50FF00FE90FE10F5D
S1130382D80FCD0FC20FB50FA70F980F870F760F97
S1130392630F4F0F3A0F240F0D0FF50EDC0EC10E33
S11303A2A60E8A0E6C0E4E0E2E0E0E0EED0DCA0DFC
S11303B2A70D830D5F0D390D120DEB0CC30C9A0CB6
S11303C2710C470C1C0CF10BC50B980B6B0B3D0B02
S11303D20F0BE00AB10A820A520A220AF109C00981
S11303E28F095E092C09FA08C808960864083208BD
S11303F20008CD079B07690737070507D306A1063F
S113040270063F060E06DD05AD057D054E051F058A
S1130412F004C204940467043A040E04E303B80328
S11304228E0365033C031403ED02C602A0027C02A0
S1130432580235021202F101D101B1019301750191
S113044259013E0123010A01F200DB00C500B0009C
S11304529C0089007800670058004A003D00320081
S113046227001E0016000F000A0006000200010009
S113047200000100020006000A000F0016001E0020
S1130482270032003D004A005800670078008900C6
S11304929C00B000C500DB00F2000A0123013E010A
S11304A2590175019301B101D101F1011202350221
S11304B258027C02A002C602ED0214033C03650347
S11304C28E03B803E3030E043A0467049404C204DB
S11304D2F0041F054E057D05AD05DD050E063F063C
S11304E27006A106D3060507370769079B07CD07E0
S9030000FC
