S00D000074657374632E73726563F4
S11300000C94FE000C9416010C9416010C94160129
S11300100C9416010C9416010C9416010C94160100
S11300200C9416010C9416010C9416010C941601F0
S11300300C9416010C9416010C9486010C94160170
S11300400C9416010C9416010C9416010C941601D0
S11300500C9416010C9416010C9416010C941601C0
S11300600C9416010C9416010C9416010C941601B0
S11300700C9416010C9416010C9416010C941601A0
S11300800C9416010C9416010C9416010C94160190
S11300900C9416010C9416010C9416010C94160180
S11300A00C9416010C9416010C9416010C94160170
S11300B00C9416010C9416010C9416010C94160160
S11300C00C9416010C9416010C9416010C94160150
S11300D00C9416010C9416010C9416010C94160140
S11300E00C9416010C9416010C9416010C94160130
S11300F00C9416010C9416010C9416010C94160120
S11301000C9416010C9416010C9416010C9416010F
S11301100C9416010C9416010C9416010C941601FF
S11301200C9416010C9416010C9416010C941601EF
S11301300C9416010C9416010C9416010C941601DF
S11301400C9416010C9416010C9416010C941601CF
S11301500C9416010C9416010C9416010C941601BF
S11301600C9416010C9416010C9416010C941601AF
S11301700C9416010C9416010C9416010C9416019F
S11301800C9416010C9416010C9416010C9416018F
S11301900C9416010C9416010C9416010C9416017F
S11301A00C9416010C9416010C9416010C9416016F
S11301B00C9416010C9416010C9416010C9416015F
S11301C00C9416010C9416010C9416010C9416014F
S11301D00C9416010C9416010C9416010C9416013F
S11301E00C9416010C9416010C9416010C9416012F
S11301F00C9416010C9416010C94160111241FBEC4
S1130200CFEFCDBFDFE3DEBF00E00CBF18BE19BEE9
S11302101ABE1BBE20E2A0E0B0E201C01D92A230D3
S1130220B207E1F70E9418010C94D1010C9400006C
S1130230CF93DF93CDB7DEB780E096E02EEFFC01DD
S1130240208380E496E02FEFFC01208384E496E091
S11302502FEFFC0120830E94650188E096E0FC01F9
S113026080818823A9F48091002090910120892B1A
S113027079F40E94650182EA90E021E0FC01208388
S1130280789481E090E080930020909301201CC03A
S113029088E096E0FC0180818130F9F680E098E006
S11302A0FC0110A211A280E098E0FC01108280E021
S11302B098E0FC01168285E496E02FEFFC01208390
S11302C01092002010920120C8CFCF93DF93CDB7B6
S11302D0DEB780E098E0FC0110A211A280E098E073
S11302E021E0FC01268386E298E026E1FC012083DC
S11302F087E298E022E0FC01208380E098E021E09E
S1130300FC0120830000DF91CF9108951F920F928A
S113031000903F000F921124009038000F92109229
S1130320380000903A000F9210923A0000903B007F
S11303300F9210923B002F938F939F93EF93FF9311
S1130340CF93DF931F92CDB7DEB78FE390E0FC012C
S11303508081898380E098E021E0FC01248787E4A0
S113036096E02FEFFC0120838FE390E02981FC01CC
S1130370208300000F90DF91CF91FF91EF919F9127
S11303808F912F910F9000923B000F9000923A00B2
S11303900F90009238000F9000923F000F901F9032
S10903A01895F894FFCF4C
S9030000FC
