:020000020000FC
:02016000B7C026
:0C000000FFC04A6F686E6E795F4C6900AB
:10020000CFEFCDBFCFE3CEBF12D0C0E0D0E2E2E06F
:10021000F0E005E00093620600E200936106000052
:100220000FEF0093640600E000936406F9CF0F938C
:1002300008E0009365060093610604E000936206FF
:1002400008E10093A40903E20093A50909E00093E3
:10025000A60900ED0093A70900E10093A30901E0BE
:100260000093A20078940F9108951F931091A10913
:1002700015FFFCCF0093A0091F9108950F930591DE
:10028000003011F0F2DFFBCF0F9108950091A1092A
:1002900007FFFCCF0091A0090895F8DFE6DF0D30DD
:1002A00011F441E008C0083021F00F3711F0099334
:1002B000F4CF2197F2CF00E0099308950F93C0E0A7
:1002C000D0E20991003011F0D0DFFBCF0F910895FB
:1002D0003FB73F934091A0094093A0093F913FBF92
:0202E00018956F
:00000001FF
