:020000020000FC
:02000000FFC03F
:10020000CFEFCDBFCFE3CEBF40D052D00091A806F4
:1002100003FF09C00091A80602FF05C00091A806CF
:1002200004FF01C0F3CF26E02093000810910C08D2
:1002300010FF00C020E02093000820E02093200859
:100240002093210821E020930C080091A80603FFC9
:100250000FC00091A80602FF05C00091C80702FF69
:100260000DC0D4CF5DD00091A80602FFCFCFFACF4A
:1002700026D00091A80603FFC9CFFACF82D0009103
:10028000680602FFC3CFFACFFFCF0F9300E00093C1
:1002900000060093C0070FEF00936406009360060A
:1002A00004E00093A20608E00093A2060F910895CF
:1002B000EFE0F0E0E0932609F093270908950F930B
:1002C0001F9304E000936E0600E70093610600E4CC
:1002D00000937006009371060093720600937306F4
:1002E00000937406009375060093760600937706D4
:1002F0000FEF10E0009326091093270910930309CC
:1003000013E4109301090FE010E000932C091093FF
:100310002D0900910806009364061F910F9108951E
:100320000F931F9306E000936E0600E700936106AB
:1003300000E4009370060093710600937206009328
:100340007306009374060093750600937606009377
:1003500077060FEF10E000932609109327091093FA
:10036000030913E4109301090FE010E000932C0936
:1003700010932D0900910806009364061F910F91B8
:1003800008950F931F9305E000936E0600E7009316
:10039000610600E4009370060093710600937206F4
:1003A0000093730600937406009375060093760617
:1003B000009377060FEF10E00093260910932709AA
:1003C0001093030913E4109301090FE010E0009368
:1003D0002C0910932D0900910806009364061F91C3
:0403E0000F910895DC
:00000001FF
