S00E00004C6162375F312E7372656340
S11300000C94FE000C940E010C940E010C940E0141
S11300100C940E010C940E010C940E010C940E0120
S11300200C940E010C940E010C940E010C940E0110
S11300300C940E010C940E010C940E010C940E0100
S11300400C940E010C940E010C940E010C940E01F0
S11300500C940E010C940E010C940E010C940E01E0
S11300600C940E010C940E010C940E010C940E01D0
S11300700C940E010C940E010C940E010C940E01C0
S11300800C940E010C940E010C940E010C940E01B0
S11300900C940E010C940E010C940E010C940E01A0
S11300A00C940E010C940E010C940E010C940E0190
S11300B00C940E010C940E010C940E010C940E0180
S11300C00C940E010C940E010C940E010C940E0170
S11300D00C940E010C940E010C940E010C940E0160
S11300E00C940E010C940E010C940E010C940E0150
S11300F00C940E010C940E010C940E010C940E0140
S11301000C940E010C940E010C940E010C940E012F
S11301100C940E010C940E010C940E010C940E011F
S11301200C940E010C940E010C940E010C940E010F
S11301300C940E010C940E010C940E010C940E01FF
S11301400C940E010C940E010C940E010C940E01EF
S11301500C940E010C940E010C940E010C940E01DF
S11301600C940E010C940E010C940E010C940E01CF
S11301700C940E010C940E010C940E010C940E01BF
S11301800C940E010C940E010C940E010C940E01AF
S11301900C940E010C940E010C940E010C940E019F
S11301A00C940E010C940E010C940E010C940E018F
S11301B00C940E010C940E010C940E010C940E017F
S11301C00C940E010C940E010C940E010C940E016F
S11301D00C940E010C940E010C940E010C940E015F
S11301E00C940E010C940E010C940E010C940E014F
S11301F00C940E010C940E010C940E0111241FBEDC
S1130200CFEFCDBFDFE3DEBF00E00CBF18BE19BEE9
S11302101ABE1BBE0E943B010C9466010C940000A4
S1130220CF93DF93CDB7DEB781E092E020E1FC010C
S1130230208382E092E020E3FC01208384E092E0CA
S113024027E0FC01208382E096E022E4FC01208385
S113025080E292E023E0FC01208381E292E02AE044
S1130260FC01208380E092E021E0FC012083000077
S1130270DF91CF910895CF93DF931F921F92CDB753
S1130280DEB70E94100119821A8280E292E020E215
S113029032E0F90120812068FC012083000083E220
S11302A092E0FC018081882F90E081709927892B4E
S11302B0B1F384E292E0FC018081918189839A8385
S11302C083E292E021E0FC012083DFCFF894FFCFAA
S9030000FC
