S00E00004C6162365F352E737265633D
S11300000C94FE000C9424010C9490010C94240193
S11300100C9424010C9424010C9424010C942401C8
S11300200C9424010C9424010C9424010C942401B8
S11300300C9424010C9424010C9424010C942401A8
S11300400C9424010C9424010C9424010C94240198
S11300500C9424010C9424010C9424010C94240188
S11300600C9424010C9424010C9424010C94240178
S11300700C9424010C9424010C9424010C94240168
S11300800C9424010C9424010C9424010C94240158
S11300900C9424010C9424010C9424010C94240148
S11300A00C9424010C9424010C9424010C94240138
S11300B00C9424010C9424010C9424010C94240128
S11300C00C9424010C9424010C9424010C94240118
S11300D00C9424010C9424010C9424010C94240108
S11300E00C9424010C9424010C9424010C942401F8
S11300F00C9424010C9424010C9424010C942401E8
S11301000C9424010C9424010C9424010C942401D7
S11301100C9424010C9424010C9424010C942401C7
S11301200C9424010C9424010C9424010C942401B7
S11301300C9424010C9424010C9424010C942401A7
S11301400C9424010C9424010C9424010C94240197
S11301500C9424010C9424010C9424010C94240187
S11301600C9424010C9424010C9424010C94240177
S11301700C9424010C9424010C9424010C94240167
S11301800C9424010C9424010C9424010C94240157
S11301900C9424010C9424010C9424010C94240147
S11301A00C9424010C9424010C9424010C94240137
S11301B00C9424010C9424010C9424010C94240127
S11301C00C9424010C9424010C9424010C94240117
S11301D00C9424010C9424010C9424010C94240107
S11301E00C9424010C9424010C9424010C942401F7
S11301F00C9424010C9424010C94240111241FBE9A
S1130200CFEFCDBFDFE3DEBF00E00CBF18BE19BEE9
S11302101ABE1BBE10E2A0E0B0E2E2EFF3E000E0A1
S11302200BBF02C007900D92A030B107D9F71BBED7
S113023020E2A0E0B0E201C01D92A230B207E1F7D3
S11302400E945D010C94F7010C9400001F93CF935E
S1130250DF93C0EAD6E018E01E8380680E94BE01E6
S11302600E94CC011D83DF91CF911F9108950F93BC
S11302701F93CF93DF93062FC0EAD6E018E01E83C6
S11302800E94BE01802F0E94BE011D83DF91CF9189
S11302901F910F910895E0E4F6E080E8828393E0F3
S11302A09187828782E0878B68EC83E20E94370122
S11302B067E980E20E94370108950E94B2010E941A
S11302C0DD010E944B0187E08093A2007894809125
S11302D0002090910120892BD1F388E20E9426010D
S11302E00E94EF0189E20E9426010E94EF018AE246
S11302F00E9426010E94EF018BE20E9426010E94C7
S1130300EF018CE20E9426010E94EF018DE20E941F
S113031026010E94EF011092002010920120D7CFF5
S11303201F920F920FB60F92112408B60F9218BEA7
S11303302F933F938F939F938FB791E090934C06A5
S113034021E030E020930020309301208FBF9F9163
S11303508F913F912F910F9008BE0F900FBE0F9079
S11303601F901895E0EAF6E08CE285838CEA81839D
S113037080E482838CE58093C00B089590E1909390
S1130380A7068093C30BE0ECFBE082818823ECF7A3
S113039080E18093A706089580E18093A70687E310
S11303A08093C30BE0ECFBE082818823ECF780E1CF
S11303B08093A7068091C30B0895E0E6F6E088E0F9
S11303C08583818384E08283E0EAF9E086E9868399
S11303D080E9878383E0858388E184830895E0EA64
S11303E0F9E0918195FFFDCF8093A0090895F894D9
S10503F0FFCF39
S9030000FC
