S00E00004C6162375F322E737265633F
S11300000C94FE000C940E010C940E010C940E0141
S11300100C940E010C940E010C940E010C940E0120
S11300200C940E010C940E010C940E010C940E0110
S11300300C940E010C940E010C940E010C940E0100
S11300400C940E010C940E010C940E010C940E01F0
S11300500C940E010C940E010C940E010C940E01E0
S11300600C940E010C940E010C940E010C940E01D0
S11300700C940E010C940E010C940E010C940E01C0
S11300800C940E010C940E010C940E010C940E01B0
S11300900C940E010C940E010C940E010C940E01A0
S11300A00C940E010C940E010C940E010C940E0190
S11300B00C940E010C940E010C940E010C940E0180
S11300C00C940E010C940E010C940E010C940E0170
S11300D00C940E010C940E010C940E010C940E0160
S11300E00C940E010C940E010C940E010C940E0150
S11300F00C940E010C940E010C940E010C940E0140
S11301000C940E010C940E010C940E010C940E012F
S11301100C940E010C940E010C940E010C948901A4
S11301200C940E010C940E010C940E010C940E010F
S11301300C940E010C940E010C940E010C940E01FF
S11301400C940E010C940E010C940E010C940E01EF
S11301500C940E010C940E010C940E010C940E01DF
S11301600C940E010C940E010C940E010C940E01CF
S11301700C940E010C940E010C940E010C940E01BF
S11301800C940E010C940E010C940E010C940E01AF
S11301900C940E010C940E010C940E010C940E019F
S11301A00C940E010C940E010C940E010C940E018F
S11301B00C940E010C940E010C940E010C940E017F
S11301C00C940E010C940E010C940E010C940E016F
S11301D00C940E010C940E010C940E010C940E015F
S11301E00C940E010C940E010C940E010C940E014F
S11301F00C940E010C940E010C940E0111241FBEDC
S1130200CFEFCDBFDFE3DEBF00E00CBF18BE19BEE9
S11302101ABE1BBE0E9477010C94CE010C94000000
S1130220CF93DF931F921F92CDB7DEB780ED93E09B
S113023089839A8386E298E02981FC01208387E2FE
S113024098E029813A81232F330F330BFC0120835B
S113025081E098E0FC01108280E891E020ECFC0150
S1130260208380E098E027E0FC01208300000F90C9
S11302700F90DF91CF910895CF93DF93CDB7DEB781
S113028081E092E020E1FC01208382E092E020E31F
S1130290FC01208384E092E027E0FC01208382E0DB
S11302A096E022E4FC01208380E292E023E0FC015A
S11302B0208381E292E02AE0FC01208382E292E042
S11302C021E0FC01208382EA90E021E0FC0120830C
S11302D0789483E092E021E0FC01208380E092E0C6
S11302E021E0FC0120830000DF91CF910895CF939A
S11302F0DF93CDB7DEB785E696E0FC01108281E698
S113030096E020E4FC0120830E943C010E9410013D
S1130310FFCF1F920F9200903F000F921124009084
S113032038000F921092380000903A000F92109209
S11303303A0000903B000F9210923B002F938F9352
S11303409F93EF93FF93CF93DF931F921F92CDB7A9
S1130350DEB784E292E0FC018081918189839A83F3
S113036087E696E020E4FC01208300000F900F90C4
S1130370DF91CF91FF91EF919F918F912F910F90EA
S113038000923B000F9000923A000F9000923800C8
S11303900F9000923F000F901F901895F894FFCF94
S9030000FC
