:020000020000FC
:02000000FFC03F
:0201A0007DC020
:020038001AC1EB
:1002000050E0CFEFCDBFCFE3CEBF09D0E0E2FEE4B8
:10021000E0932608F093270811D021D0FFCF04E007
:100220000093A2060FEF009344060093400604E0FB
:100230000093620600E400936106089504E00093D1
:10024000AA0601E00093A90602E00093B20601E0CD
:100250000093060801E00093A200789408950FEF40
:100260000093640600E000936406F9CF089501E06E
:1002700000930C0820E0209320082093210820936D
:1002800000080091A80602FD13C05395152F109584
:100290001093440601E00093AC060AC002E000930C
:1002A000000804E00093AC0600E00093A90618954E
:0802B00001E00093A906189576
:00000001FF
