:020000020000FC
:02000000FFC03F
:1002000004E00093A20608E00093A20603E3009333
:10021000E50607E30093E1060FEF009321070FEFD8
:100220000093010701E0009340040DE100935004A6
:1002300000E40093520400E00093530400E70093AD
:10024000560403E00093570401E00093540403E0D4
:1002500000933B00E0E0F0E7C0E0D0E400E0009372
:100260003A0006910883088100830091A80602FFE6
:100270000AD000810000000000830091A80603FF5F
:100280000CC0EFCFFFCF008100950000000000837D
:100290000091A80602FFF7CF0895CFEFDFE300E05B
:1002A00000933A0006910883088100830091A80614
:1002B0000FEF0000000000830091A80603FF01C0BB
:1002C000F1CFCFEFDFEB00E000933A000691088317
:1002D000088100830091A80602FFD5DF008100009D
:1002E000000000830091A80603FF01C0EFCFC0E02B
:1002F000D0EC00E000933A00069108830881008367
:100300000091A8060FEF0000000000830091A806EE
:0603100003FFA2CFF1CFB4
:00000001FF
